:1000000049C0000064C0000062C0000060C0000081
:100010005EC000005CC000005AC0000058C0000074
:1000200056C0000054C0000052C0000050C0000084
:100030004EC000004CC000004AC0000048C0000094
:1000400046C0000044C0000084C0000040C0000062
:100050003EC000003CC000003AC0000038C00000B4
:1000600036C0000034C0000032C0000030C00000C4
:100070002EC000002CC000002AC0000028C00000D4
:1000800026C0000024C0000022C0000020C00000E4
:100090001EC0000011241FBECFEFD0E1DEBFCDBFD8
:1000A00011E0A0E0B1E0E6E6FAE000E00BBF02C03C
:1000B00007900D92A031B107D9F721E0A0E1B1E09E
:1000C00001C01D92A63CB207E1F781D1CAC498CF06
:1000D000CF93DF93E8EDF0E081E080831092E200BF
:1000E0008CE08093E30087E38093E4001092E700C4
:1000F0001092E6001092E9001092E8001092EC00D5
:100100001092E500CDEED0E01882AEEEB0E01C9289
:1001100080E188831C921092F4001092F6001092F5
:10012000F7001092F0001092F2001092F30080E8B5
:100130008093EF0083E08093DC008093DE0080EB0F
:100140008093DB0082E0808310921001DF91CF91D9
:1001500008951F920F920FB60F9211240BB60F92B3
:100160002F933F934F935F936F938F939F93AF938F
:10017000BF93EF93FF93CF93DF931F92CDB7DEB77B
:100180008091E00080FF47C09091DE0090FF43C067
:100190001092ED00EEEEF0E08081898380818F7B0C
:1001A00080838091150190911401981789F18770CF
:1001B0002BE0829FC0011124FC01EA5EFE4F2081EA
:1001C0002093F00020812093F20021812093F300FE
:1001D0002381AAEFB0E02C9324812C9325812C93CA
:1001E00026812C9327812C9320852C9321852C9379
:1001F00022852C93FC01E85EFE4F80818F70806425
:100200008093EF00809115018F5F809315017CC072
:100210001092130179C081FF77C08091DE0081FFC9
:1002200073C080E18093ED0080911101282F30E0B0
:1002300090911201291B31092F773327283031057E
:100240000CF058C0E82FE7709091EF002E2F30E0AF
:100250004BE0E49FF0011124E259FE4F9F70428170
:10026000407F942B92839091F2004091F000477070
:10027000907E942B90839091F3009183AAEFB0E04D
:100280009C9193839C9194839C9195839C9196835C
:100290009C9197839C9190879C9191879C91928748
:1002A0008F5F80931101408142954695477051813F
:1002B000652F660F660F660F862F842B952F9295FC
:1002C00096959770892BB1F48BE0829FF001839F04
:1002D000F00D1124E259FE4F8381833059F498E0E8
:1002E00088E10FB6F894A895809360000FBE9093B4
:1002F0006000FFCFEEEEF0E08081898380818F7D0A
:10030000808380E88093EF000F90DF91CF91FF9181
:10031000EF91BF91AF919F918F916F915F914F91AD
:100320003F912F910F900BBE0F900FBE0F901F901B
:1003300018958091120187702BE0829FC0011124D3
:1003400082599E4F08958091120190911101981742
:1003500019F08F5F80931201089581E020911101BF
:1003600090911201291301C080E0089585B1806E3B
:1003700085B9089595B180EE892785B9089584B12E
:10038000806E84B9F3CF08951092C5001092C40016
:1003900086E08093C200E1ECF0E080818860808399
:1003A0000895E0ECF0E0908195FFFDCF8093C600CA
:1003B0000895CF93DF93EC018881882329F021965B
:1003C000F0DF89918111FCCFDF91CF910895CF9318
:1003D000DF93CDB7DEB7E3970FB6F894DEBF0FBE5D
:1003E000CDBFF89475DECBDFCFDF78949E012F5F11
:1003F0003F4F49010F2EFAE0AF2EF1E0BF2EF02D56
:10040000522E9BAA0F2EFDE52F2EFAE03F2E412CF7
:10041000F02DA3DF8823E9F3ADDF8BDF3C01DC01A6
:1004200012968C9112978F701F928F938C91829558
:100430008695877011969C91292F220F220F220FEB
:10044000822B9295969597709F938F93A0E0B1E041
:10045000BF93AF939F928F923BD08C01D3011296A2
:100460008C918F700FB6F894DEBF0FBECDBF29F10F
:100470006301F3E0CF0ED11CE12CF12CD6018D915C
:100480006D011F928F93BF92AF92C401800F911F95
:100490009F938F931DD0080F191FBFEFEB1AFB0A14
:1004A000F30182818F7090E00F900F900F900F906A
:1004B0000F900F90E816F9060CF3F401E00FF11F0E
:1004C000208231824282852D9BA973DF3CDFA1CF40
:1004D0000F931F93CF93DF93CDB7DEB72E970FB651
:1004E000F894DEBF0FBECDBF0D891E8986E08C83D8
:1004F0001A8309838FEF9FE79E838D83AE01475E4A
:100500005F4F6F89788DCE01019611D02F8138858C
:10051000F801E20FF31F10822E960FB6F894DEBF9B
:100520000FBECDBFDF91CF911F910F9108952F92F4
:100530003F924F925F926F927F928F929F92AF9273
:10054000BF92CF92DF92EF92FF920F931F93CF93C0
:10055000DF93CDB7DEB72C970FB6F894DEBF0FBE92
:10056000CDBF7C016B018A01FC0117821682838159
:1005700081FFB0C1CE0101964C01F7019381F601D4
:1005800093FD859193FF81916F01882309F49EC1AA
:10059000853239F493FD859193FF81916F01853206
:1005A00021F4B70190E0C7D1E8CF512C312C20E0E5
:1005B0002032A0F48B3269F030F4803259F083326B
:1005C00069F420612CC08D3239F0803339F4216018
:1005D00026C02260246023C0286021C027FD27C0D8
:1005E00030ED380F3A3078F426FF06C0FAE05F9E0F
:1005F000300D1124532E13C08AE0389E300D112483
:10060000332E20620CC08E3221F426FD5FC120649F
:1006100006C08C3611F4206802C0883641F4F60119
:1006200093FD859193FF81916F018111C1CF982F27
:100630009F7D9554933028F40C5F1F4FFFE3F9839F
:100640000DC0833631F0833771F0833509F057C020
:1006500021C0F801808189830E5F1F4F4424439499
:10066000512C540114C03801F2E06F0E711CF801D6
:10067000A080B18026FF03C0652D70E002C06FEF3F
:100680007FEFC5012C874CD12C0183012C852F775E
:10069000222E16C03801F2E06F0E711CF801A08006
:1006A000B18026FF03C0652D70E002C06FEF7FEFC1
:1006B000C5012C872AD12C012C852068222E83018C
:1006C00023FC19C0832D90E048165906A0F4B70109
:1006D00080E290E030D13A94F5CFF50127FC859186
:1006E00027FE81915F01B70190E025D131103A9446
:1006F000F1E04F1A51084114510479F7DEC08436F5
:1007000011F0893631F5F80127FF07C0608171814A
:10071000828193810C5F1F4F08C060817181072E19
:10072000000C880B990B0E5F1F4F2F76722E97FFD0
:1007300009C090958095709561957F4F8F4F9F4F21
:100740002068722E2AE030E0A4012DD1A82EA8182E
:1007500043C0853729F42F7EB22E2AE030E025C031
:10076000F22FF97FBF2E8F36C1F018F4883579F05B
:10077000ADC0803719F0883721F0A8C02F2F206135
:10078000B22EB4FE0DC08B2D8460B82E09C024FF9C
:100790000AC09F2F9660B92E06C028E030E005C041
:1007A00020E130E002C020E132E0F801B7FE07C0EE
:1007B00060817181828193810C5F1F4F06C06081CF
:1007C000718180E090E00E5F1F4FA401ECD0A82E55
:1007D000A818FB2DFF777F2E76FE0BC0372D3E7FAE
:1007E000A51450F474FE0AC072FC08C0372D3E7E7A
:1007F00005C0BA2C372D03C0BA2C01C0B52C34FF6C
:100800000DC0FE01EA0DF11D8081803311F4397EA7
:1008100009C032FF06C0B394B39404C0832F867816
:1008200009F0B39433FD12C030FF06C05A2CB31444
:1008300018F4530C5B18B32CB31460F4B70180E2C6
:1008400090E03C8778D0B3943C85F6CFB31410F495
:100850003B1801C0312C34FF11C0B70180E390E098
:100860003C8769D03C8532FF16C031FD03C088E764
:1008700090E002C088E590E0B7010CC0832F867835
:1008800051F031FF02C08BE201C080E237FD8DE202
:10089000B70190E050D0A51430F4B70180E390E0A8
:1008A0004AD05A94F8CFAA94F401EA0DF11D808140
:1008B000B70190E040D0A110F6CF332009F45DCE0F
:1008C000B70180E290E037D03A94F7CFF701868104
:1008D000978102C08FEF9FEF2C960FB6F894DEBF82
:1008E0000FBECDBFDF91CF911F910F91FF90EF9081
:1008F000DF90CF90BF90AF909F908F907F906F9040
:100900005F904F903F902F900895FC0105906150AB
:1009100070400110D8F7809590958E0F9F1F089515
:10092000FC016150704001900110D8F780959095BE
:100930008E0F9F1F08950F931F93CF93DF93FB019B
:10094000238121FD03C08FEF9FEF28C022FF16C037
:1009500046815781248135814217530744F4A08191
:10096000B1819D012F5F3F4F318320838C9326817E
:1009700037812F5F3F4F3783268310C0EB01092F4C
:10098000182F0084F185E02D0995892BE1F68E81E1
:100990009F8101969F838E83812F902FDF91CF912E
:1009A0001F910F910895FA01AA27283051F12031A3
:1009B00081F1E8946F936E7F6E5F7F4F8F4F9F4FF3
:1009C000AF4FB1E03ED0B4E03CD0670F781F891F35
:1009D0009A1FA11D680F791F8A1F911DA11D6A0F03
:1009E000711D811D911DA11D20D009F468943F91B6
:1009F0002AE0269F11243019305D3193DEF6CF01B5
:100A00000895462F4770405D4193B3E00FD0C9F77A
:100A1000F6CF462F4F70405D4A3318F0495D31FDE7
:100A20004052419302D0A9F7EACFB4E0A69597953A
:100A3000879577956795BA95C9F700976105710510
:100A400008959B01AC010A2E06945795479537955A
:100A50002795BA95C9F7620F731F841F951FA01DB4
:060A60000895F894FFCF99
:100A66005B253033583A25643A0025303258000069
:00000001FF
